:100000000C9446000C9458000C9458000C94580022
:100010000C9458000C9458000C9458000C94580000
:100020000C9458000C9458000C9458000C945800F0
:100030000C9458000C9458000C9458000C945800E0
:100040000C9458000C9458000C9458000C945800D0
:100050000C9458000C9458000C9458000C945800C0
:100060000C9458000C9458000C9458000C945800B0
:100070000C9458000C9458000C9458000C945800A0
:100080000C9458000C9458000C94580011241FBE76
:10009000CFEFD0E1DEBFCDBF11E0A0E0B1E001C005
:1000A0001D92A930B107E1F70E94DC000C947701A2
:1000B0000C940000BF9A9B01220F331F620F731F25
:1000C00028B32F7738B33068AFB7F894611571054E
:1000D00081F0E82FF92F819198E038BB87FF28BB8A
:1000E000880F000000C028BB9A95B9F76150704096
:1000F00091F7AFBF85E88A95F1F700000895BF9AA0
:100100009B01220F331F620F731F28B3342F3095CA
:10011000232338B3432BAFB7F8946115710581F0F1
:10012000E82FF92F819198E048BB87FF28BB880F03
:10013000000000C028BB9A95B9F76150704091F754
:10014000AFBF85E88A95F1F700000895FC0128B358
:100150002F7798B390684FB7F8946115710571F0D7
:10016000819138E098BB87FF28BB880F000000C052
:1001700028BB3A95B9F76150704091F74FBF089589
:10018000FC0188B3942F9095982388B3482B3FB7F0
:10019000F8946115710571F0819128E048BB87FFE3
:1001A00098BB880F000000C098BB2A95B9F7615032
:1001B000704091F73FBF08952F923F924F925F9208
:1001C0006F927F928F929F92AF92BF92CF92DF9267
:1001D000EF92FF920F931F93DF93CF9300D00F9274
:1001E000CDB7DEB74FEF50E020E030E060E071E0E7
:1001F0006E5F7F4F00E011E00C5F1F4F0F2EF3E0AA
:10020000EF2EFF24F02D80E091E0E80EF91E0F2E76
:10021000F5E0CF2EDD24F02DC80ED91E0F2EF7E00D
:10022000AF2EBB24F02DA80EB91E0F2EF6E04F2ED8
:100230005524F02D480E591E22243324689423F8A7
:10024000280E391E8B83892E81E091E008963A01B1
:1002500003C0089461087108A1E0B1E02C93E0E0CC
:10026000F1E01082DB016C92F8016082D7011C92F0
:10027000F6012083D5011C92F2011082EFEFD1012B
:10028000EC93BF9AEB81F82D48B30F2EFFE79F2E1A
:10029000F02D942258B350684FB7F8943A832983CD
:1002A000219138E058BB27FF98BA220F000000C008
:1002B00098BA3A95B9F7E817F90791F729813A8181
:1002C0004FBFF5E8FA95F1F7000045E84A95F1F7D8
:1002D00000002F5F3F4F2F3F31050CF4BACF0F2E98
:1002E000FFEF6F2E7724F02D20E030E0B5CFF894AB
:0202F000FFCF3E
:00000001FF
